:10C00000314000041542200175F335D0085A3F40F5
:10C0100000000F930724824520012F839F4F32C6D3
:10C020000002F9233F406F000F9306248245200150
:10C030001F83CF430002FA23B01256C4B0126CC45F
:10C04000B01262C4B0124AC5B01288C4B0124AC459
:10C05000B01280C4B0129CC45B43053C6F43B01265
:10C060005CC5B012A0C47B53F923B0129AC04B4FE9
:10C07000B01246C14A4FB012B6C5094FB012DEC564
:10C080000C4F0D494E4A4F4BB01244C26B42E63F33
:10C0900032D0F000FD3F304010C60B121B420E02A2
:10C0A0005F4209025F53C24F09025E420C024E9387
:10C0B00003247E53C24E0C027F9005001E24C293BF
:10C0C0000C021B206D420E4B3F400E02B012DCC32F
:10C0D0000F4B0F5F0F5F0F8E3F90D4FE1434F24072
:10C0E00028000C02F24028001702C29316022124F5
:10C0F0004F43C24318023B413041C2430902B012D0
:10C1000088C50B4FDF3F3F90CFFF1738C243160261
:10C110003F902D011238F24028000C02F240280016
:10C120001702C29318020C20D24318026F433B41FE
:10C130003041D24316025F43DC3F3F903200D83B90
:10C140004F433B4130410B121B4200025F420B0246
:10C150005F53C24F0B025E4217024E9303247E537D
:10C16000C24E17027F9005001E24C29317021B20A7
:10C170006D420E4B3F400002B012DCC30F4B0F5F0D
:10C180000F5F0F8E3F90D4FE1434F24028000C0253
:10C19000F24028001702C293080221244F43C243F1
:10C1A0000A023B413041C2430B02B01298C50B4F0B
:10C1B000DF3F3F90CFFF1738C24308023F902D0169
:10C1C0001238F24028000C02F24028001702C293F5
:10C1D0000A020C20D2430A026F433B413041D24352
:10C1E00008025F43DC3F3F903200D83B4F433B4166
:10C1F00030410B12B01236C55F4268024F930924DA
:10C200004B434F4BB012A6C45B535F4268024B9F37
:10C21000F82BC2936C020324C29F26020224D2434D
:10C220006902D2436C02C24F26023B413041B01238
:10C2300036C5D2936C020320D2426C026902C2431B
:10C240006C0230410B120A12091208120A4DC293F5
:10C2500069020424C24369024E434F4E3C9052038C
:10C26000052C5D426D027D90C8FF36285F9339240E
:10C270005E9337245F426E027F90FAFF032C5F5378
:10C28000C24F6E024E4F7E50E0FF7E9203287F9099
:10C290001C003C2CB012F2C1D25325025F421B029B
:10C2A0005F53C24F1B026F9240241F426A020F93DA
:10C2B0002A243FF00F003F900B002228B012A8C59F
:10C2C000B2536A02C2931A020224B012A8C53841BE
:10C2D00039413A413B4130415D53C24D6D025F935C
:10C2E000C72382436A02F2901C006E02042C5F9303
:10C2F00010245E936B24B012F2C1C2436E02CC3F95
:10C30000B012AEC5DD3FB012AEC5DC3FB0122EC2DA
:10C31000C33F5F4268027F92EE2FF29005006D02EC
:10C32000EA2F5F53C24F6802E63FC2431B024D4FE4
:10C330000E4A3F401C02B012DCC3094E084F0F9357
:10C3400003203E902D0B2628D2431A027D40200068
:10C350000E493F402802B012DCC30B4E0C4F3A90FE
:10C3600091011E280D490E480D5D0E6E0D5D0E6E7D
:10C370000D5D0E6E0D5D0E6E0D5D0E6E0D8B0E7CE9
:10C380003E9305380E930C343D9006FF092CD25392
:10C3900024028B3F3E90F00AD92FC24F1A02D63F9B
:10C3A000F2900D0024020F285F4268024F93072489
:10C3B0007F53C24F68020320B240FF026A02B012EC
:10C3C000F2C1C2436E02C24324026F3F5F42680261
:10C3D0004F9391277F53C24F68028D3F0B120A1271
:10C3E00009120812071206120512054E484D78531D
:10C3F00021240C430D4347480B473B530B5B0B5F1A
:10C40000264B0B470B5B0B5F8B46000009460A432C
:10C410000C590D6A7853EF238F4500000E450F43EA
:10C420000E5C0F6D354136413741384139413A4153
:10C430003B4130410C430D43EF3FB1C0D000000001
:10C440000013B1C0D00000000013D2D32200F2F0DC
:10C45000FEFF21003041B240805A2001D2D30000BB
:10C460003041E2D32200E2D321003041F2D00C006F
:10C470005300D242FF105700D242FE105600304106
:10C48000F2D003002A003041F2D010004A00F2D06E
:10C4900020002200F2F0DFFF2100304132D2304193
:10C4A00032D0D00030417F92072C4F4F0F5F104F9A
:10C4B00012C6F2F07F0021003041F2F0BFFF2100F0
:10C4C0003041F2F0FBFF21003041F2F0F7FF210094
:10C4D0003041F2F0FBFF29003041F2F0F7FF290074
:10C4E0003041F2F0EFFF29003041F2F0DFFF290088
:10C4F00030417F92072C4F4F0F5F104F22C6F2D072
:10C5000080FF21003041F2D0400021003041E2D2D2
:10C5100021003041F2D221003041E2D229003041E5
:10C52000F2D229003041F2D0100029003041F2D07F
:10C530002000290030410B124B434F4BB012F2C484
:10C540005B537B92FA233B413041F2D03C002A00FE
:10C55000F2D0CCFF2200B01236C530414F4F3FD051
:10C560001C5A824F20013041B24024036001B24086
:10C570001F5A200132D0D000B240805A20011F4201
:10C580007001824360013041E2D34200B01268C5BD
:10C59000F2F0FDFF42003041D2D34200B01268C534
:10C5A000F2F0FEFF42003041D2D321003041F2F0E0
:10C5B000FEFF21003041F2D020002100B240604057
:10C5C000B201B2401B18B00132D0D0001F42B401FA
:10C5D000B2F0FDFFB001F2F0DFFF21003041B240C8
:10C5E00060B0B201B2403838B00103433F400900A7
:10C5F0001F83FE23B2D00300B00132D0D0001F420F
:10C60000B401B2F0FDFFB001B2F0DFFFB001304184
:02C61000001315
:10C61200C2C4CAC4D2C4DAC4E2C4EAC4BAC4B2C488
:10C622000EC514C51AC520C526C52EC506C5FEC42D
:10FFE00096C096C096C096C096C042C496C096C0B1
:10FFF00096C096C03AC496C096C096C096C000C03F
:040000030000C00039
:00000001FF
