:10C000005542200135D0085A824570023140000463
:10C010003F4000000F9308249242700220012F83BA
:10C020009F4F4AC60002F8233F4070000F93072439
:10C030009242700220011F83CF430002F923B01205
:10C0400012C2B01228C2B0121EC2B01206C3B01281
:10C0500044C2B01206C2B0123CC2B01258C25B4316
:10C060007B531220B0129EC04B4FB0124AC14A4FB0
:10C07000B01286C3094FB012AEC30C4F0D494E4AE1
:10C080004F4BB01236C46B426F43B01218C3B0129C
:10C090005CC2E63F32D0F000FD3F304028C60B12B4
:10C0A0001B420E025F4209025F53C24F09025E4209
:10C0B0000C024E9303247E53C24E0C027F90050067
:10C0C0001E24C2930C021B206D420E4B3F400E02F9
:10C0D000B012D8C50F4B0F5F0F5F0F8E3F90D4FE8D
:10C0E0001434F24028000C02F24028001702C293D8
:10C0F000160221244F43C24318023B413041C24340
:10C100000902B01224C30B4FDF3F3F90CFFF173817
:10C11000C24316023F902D011238F24028000C0253
:10C12000F24028001702C29318020C20D2431802D2
:10C130006F433B413041D24316025F43DC3F3F90A7
:10C140003200D83B4F433B4130410B121B420002AF
:10C150005F420B025F53C24F0B025E4217024E93C7
:10C1600003247E53C24E17027F9005001E24C29303
:10C1700017021B206D420E4B3F400002B012D8C583
:10C180000F4B0F5F0F5F0F8E3F90D4FE1434F240C1
:10C1900028000C02F24028001702C2930802212452
:10C1A0004F43C2430A023B413041C2430B02B0122B
:10C1B0004EC30B4FDF3F3F90CFFF1738C2430802FB
:10C1C0003F902D011238F24028000C02F240280066
:10C1D0001702C2930A020C20D2430A026F433B416A
:10C1E0003041D24308025F43DC3F3F903200D83BEE
:10C1F0004F433B413041B1C0D00000000013B1C0FB
:10C20000D00000000013D2D32200F2F0FEFF210084
:10C210003041B240805A2001D2D300003041E2D3F5
:10C220002200E2D321003041F2D00C005300D24270
:10C23000FF105700D242FE1056003041F2D00300EA
:10C240002A003041F2D010004A00F2D02000220033
:10C25000F2F0DFFF2100304132D2304132D0D00045
:10C2600030417F92072C4F4F0F5F104F2AC6F2F0DC
:10C270007F0021003041F2F0BFFF21003041F2F099
:10C28000FBFF21003041F2F0F7FF21003041F2F0D6
:10C29000FBFF29003041F2F0F7FF29003041F2F0B6
:10C2A000EFFF29003041F2F0DFFF290030417F929B
:10C2B000072C4F4F0F5F104F3AC6F2D080FF21007E
:10C2C0003041F2D0400021003041E2D22100304123
:10C2D000F2D221003041E2D229003041F2D22900CD
:10C2E0003041F2D0100029003041F2D02000290066
:10C2F00030410B124B434F4BB012AEC25B537B929B
:10C30000FA233B413041F2D03C002A00F2D0CCFF6E
:10C310002200B012F2C230414F4F3FD01C5A824F20
:10C3200020013041E2D34200B24024036001B24018
:10C330001F5A200132D0D000B240805A20011F4243
:10C34000700182436001F2F0FDFF42003041D2D320
:10C350004200B24024036001B2401F5A200132D093
:10C36000D000B240805A20011F4270018243600118
:10C37000F2F0FEFF42003041D2D321003041F2F012
:10C38000FEFF21003041F2D020002100B240604089
:10C39000B201B2401B18B00132D0D0001F42B4012C
:10C3A000B2F0FDFFB001F2F0DFFF21003041B240FA
:10C3B00060B0B201B2403838B0013F4009001F837D
:10C3C000FE230343B2D00300B00132D0D0001F429D
:10C3D000B401B2F0FDFFB001B2F0DFFFB0013041B7
:10C3E0000B12C2936C0205245F426802C29F2602B0
:10C3F0001024D2536902B012F2C2C29368020F2411
:10C400004B434F4BB01262C25B535F4268024B9F7B
:10C41000F82BD2436C02C24F26023B4130414F43BE
:10C42000F83FB012F2C2D2936C020220D2536902DA
:10C43000C2436C0230410B120A1209120812071291
:10C44000094D5B4269024B9305247B53C24B690241
:10C450004E434F433C905203052C5D426D027D904C
:10C46000C8FF37285F933A245E9338245F426E02F8
:10C470007F90FAFF032C5F53C24F6E024E4F7E50E7
:10C48000E0FF7E9203287F901C008F2CB012E0C347
:10C49000D25325025F421B025F53C24F1B026F92B1
:10C4A0003E241F426A020F932B243FF00F003F905F
:10C4B0000B002328B01278C3B2536A02C2931A0247
:10C4C0000224B01278C33741384139413A413B41E7
:10C4D00030415D53C24D6D025F93C62382436A02B1
:10C4E000F2901C006E02042C5F930D245E93602476
:10C4F000B012E0C3C2436E02CB3FB0127EC3DC3F3A
:10C50000B0127EC3DB3F5F4268027F92F12FF29050
:10C5100005006D02ED2F5F53C24F6802E93FC24331
:10C520001B026D420E493F401C02B012D8C5084E96
:10C53000074F0F9303203E902D0B4228D2431A023F
:10C540007D4020000E483F402802B012D8C53990E7
:10C55000910112280C480D470C5C0D6D0C5C0D6DA3
:10C560000C5C0D6D0C5C0D6D0C5C0D6D0C8E0D7FFF
:10C570003D932F380D932A38F2900D002402122893
:10C580005F4268024F930A247F53C24F6802032020
:10C59000B240FF026A02F25006006902B012E0C324
:10C5A000C2436E02C24324027C3FB01222C4703FD9
:10C5B0005F4268024F939C277F53C24F6802983FA7
:10C5C0003E90F00ABD2FC2431A02BA3F3C9006FFCC
:10C5D000D32FD2532402653F0B120A1209120812FC
:10C5E0000712474D77530C430D4310244B470A4B1A
:10C5F0003A530A5A0A5F2A4A0B5B0B5F8B4A0000C8
:10C60000084A09430C580D697753F0238F4E0000F8
:10C610000A4E0B430E4C0F4D0E5A0F6B37413841EB
:0AC6200039413A413B41304100131B
:10C62A007EC286C28EC296C29EC2A6C276C26EC2A0
:10C63A00CAC2D0C2D6C2DCC2E2C2EAC2C2C2BAC24C
:10FFE0009AC09AC09AC09AC09AC0FEC19AC09AC0DC
:10FFF0009AC09AC0F6C19AC09AC09AC09AC000C06E
:040000030000C00039
:00000001FF
