:10C000005542200135D0085A824570023140000463
:10C010003F4000000F9308249242700220012F83BA
:10C020009F4F46C60002F8233F4070000F9307243D
:10C030009242700220011F83CF430002F923B01205
:10C0400056C4B0126CC4B01262C4B0124AC5B01269
:10C0500088C4B0124AC4B01280C4B0129CC45B43FE
:10C060007B531220B0129EC04B4FB0124AC14A4FB0
:10C07000B012CAC5094FB012F2C50C4F0D494E4A55
:10C080004F4BB01238C26B426F43B0125CC5B01256
:10C09000A0C4E63F32D0F000FD3F304024C60B1272
:10C0A0001B4200025F4208025F53C24F08025E4219
:10C0B00009024E9303247E53C24E09027F9005006D
:10C0C0001E24C29309021B206D420E4B3F4000020A
:10C0D000B012EAC30F4B0F5F0F5F0F8E3F90D4FE7D
:10C0E0001434F24028000902F24028000A02C293E8
:10C0F0000B0221244F43C2430C023B413041C24357
:10C100000802B01268C50B4FDF3F3F90CFFF1738D2
:10C11000C2430B023F902D011238F2402800090261
:10C12000F24028000A02C2930C020C20D2430C02F7
:10C130006F433B413041D2430B025F43DC3F3F90B2
:10C140003200D83B4F433B4130410B121B420E02A1
:10C150005F4216025F53C24F16025E420A024E93BE
:10C1600003247E53C24E0A027F9005001E24C29310
:10C170000A021B206D420E4B3F400E02B012EAC372
:10C180000F4B0F5F0F5F0F8E3F90D4FE1434F240C1
:10C1900028000902F24028000A02C2931702212453
:10C1A0004F43C24318023B413041C2431602B01212
:10C1B00092C50B4FDF3F3F90CFFF1738C2431702A6
:10C1C0003F902D011238F24028000902F240280069
:10C1D0000A02C29318020C20D24318026F433B415B
:10C1E0003041D24317025F43DC3F3F903200D83BDF
:10C1F0004F433B4130410B12C293200205245F4262
:10C200001F02C29F6F021024D2531902B01236C50A
:10C21000C2931F020F244B434F4BB012A6C45B5373
:10C220005F421F024B9FF82BD2432002C24F6F0286
:10C230003B4130414F43F83F0B120A1209120812DA
:10C240000712094D5B4219024B9305247B53C24BE5
:10C2500019024E434F433C905203052C5D421A0293
:10C260007D90C8FF37285F933A245E9338245F425D
:10C270001E027F90FAFF032C5F53C24F1E024E4FE7
:10C280007E50E0FF7E9203287F901C008F2CB0121E
:10C29000F6C1D25321025F4222025F53C24F2202F3
:10C2A0006F923E241F421C020F932B243FF00F007D
:10C2B0003F900B002328B012BCC5B2531C02C2939E
:10C2C0002C020224B012BCC53741384139413A41F1
:10C2D0003B4130415D53C24D1A025F93C6238243F6
:10C2E0001C02F2901C001E02042C5F930D245E932E
:10C2F0006524B012F6C1C2431E02CB3FB012C2C5C4
:10C30000DC3FB012C2C5DB3F5F421F027F92F12FBC
:10C31000F29005001A02ED2F5F53C24F1F02E93F52
:10C32000C24322026D420E493F402402B012EAC3CA
:10C33000084E074F0F9303203E902D0B4728D24302
:10C340002C027D4020000E483F402E02B012EAC36E
:10C350003990910112280C480D470C5C0D6D0C5C56
:10C360000D6D0C5C0D6D0C5C0D6D0C5C0D6D0C8E13
:10C370000D7F3D9334380D932F38F2900D006E02EF
:10C3800012285F421F024F930A247F53C24F1F029D
:10C390000320B240FF021C02F25006001902B01244
:10C3A000F6C1C2431E02C2436E027C3FB01236C5C4
:10C3B000D29320021724C24320026B3F5F421F0228
:10C3C0004F9397277F53C24F1F02933F3E90F00A2F
:10C3D000B82FC2432C02B53F3C9006FFCE2FD2535C
:10C3E0006E02603FD2531902E63F0B120A12091285
:10C3F00008120712474D77530C430D4310244B4747
:10C400000A4B3A530A5A0A5F2A4A0B5B0B5F8B4A64
:10C410000000084A09430C580D697753F0238F4EEA
:10C4200000000A4E0B430E4C0F4D0E5A0F6B374156
:10C43000384139413A413B413041B1C0D000000060
:10C440000013B1C0D00000000013D2D32200F2F0DC
:10C45000FEFF21003041B240805A2001D2D30000BB
:10C460003041E2D32200E2D321003041F2D00C006F
:10C470005300D242FF105700D242FE105600304106
:10C48000F2D003002A003041F2D010004A00F2D06E
:10C4900020002200F2F0DFFF2100304132D2304193
:10C4A00032D0D00030417F92072C4F4F0F5F104F9A
:10C4B00026C6F2F07F0021003041F2F0BFFF2100DC
:10C4C0003041F2F0FBFF21003041F2F0F7FF210094
:10C4D0003041F2F0FBFF29003041F2F0F7FF290074
:10C4E0003041F2F0EFFF29003041F2F0DFFF290088
:10C4F00030417F92072C4F4F0F5F104F36C6F2D05E
:10C5000080FF21003041F2D0400021003041E2D2D2
:10C5100021003041F2D221003041E2D229003041E5
:10C52000F2D229003041F2D0100029003041F2D07F
:10C530002000290030410B124B434F4BB012F2C484
:10C540005B537B92FA233B413041F2D03C002A00FE
:10C55000F2D0CCFF2200B01236C530414F4F3FD051
:10C560001C5A824F20013041E2D34200B2402403E2
:10C570006001B2401F5A200132D0D000B240805A30
:10C5800020011F42700182436001F2F0FDFF420072
:10C590003041D2D34200B24024036001B2401F5A5E
:10C5A000200132D0D000B240805A20011F427001D9
:10C5B00082436001F2F0FEFF42003041D2D32100FD
:10C5C0003041F2F0FEFF21003041F2D02000210086
:10C5D000B2406040B201B2401B18B00132D0D0006E
:10C5E0001F42B401B2F0FDFFB001F2F0DFFF210005
:10C5F0003041B24060B0B201B2403838B0013F4083
:10C6000009001F83FE230343B2D00300B00132D0E0
:10C61000D0001F42B401B2F0FDFFB001B2F0DFFF65
:06C62000B00130410013DF
:10C62600C2C4CAC4D2C4DAC4E2C4EAC4BAC4B2C474
:10C636000EC514C51AC520C526C52EC506C5FEC419
:10FFE0009AC09AC09AC09AC09AC042C49AC09AC095
:10FFF0009AC09AC03AC49AC09AC09AC09AC000C027
:040000030000C00039
:00000001FF
