:10C000005542200135D0085A82456C023140000467
:10C010003F4000000F93082492426C0220012F83BE
:10C020009F4FDAC50002F8233F406C000F930724AE
:10C0300092426C0220011F83CF430002F923B01209
:10C04000EAC3B01200C4B012F6C3B012DEC4B0121C
:10C050001CC4B012DEC3B01214C4B01230C45B43AF
:10C060007B531220B0129EC04B4FB01238C14A4FC2
:10C07000B0125EC5094FB01286C50C4F0D494E4A2D
:10C080004F4BB012F2C16B426F43B012F0C4B0120A
:10C0900034C4E63F32D0F000FD3F3040B8C50B124B
:10C0A0001B420E025F4209025F53C24F09025E4209
:10C0B0000C024E9323247E53C24E0C02C24309024B
:10C0C0000524C2430902B012FCC40B4F6D420E4B53
:10C0D0003F400E02B0127EC30F4B0F5F0F5F0F8EFB
:10C0E0003F90D4FE0F34F24028000C02C293160297
:10C0F00019244F43C24318023B4130417F90050051
:10C10000E523DF3F3F90CFFF1138C24316023F9037
:10C110002D010C38C29318020C20D24318026F4331
:10C120003B413041D24316025F43E43F3F9032002F
:10C13000E03B4F433B4130410B121B4200025F4248
:10C140000B025F53C24F0B025E4217024E93232431
:10C150007E53C24E1702C2430B020524C2430B0298
:10C16000B01226C50B4F6D420E4B3F400002B0127D
:10C170007EC30F4B0F5F0F5F0F8E3F90D4FE0F34C7
:10C18000F24028001702C293080219244F43C24309
:10C190000A023B4130417F900500E523DF3F3F909D
:10C1A000CFFF1138C24308023F902D010C38C293D3
:10C1B0000A020C20D2430A026F433B413041D24372
:10C1C00008025F43E43F3F903200E03B4F433B4176
:10C1D00030410B12B012CAC4C293660208244B430A
:10C1E0004F4BB0123AC45B535B926602F92B3B4152
:10C1F00030410B120A12091208120712094D3C9025
:10C2000051030124052C5D426A027D90C8FF372846
:10C210005F933A245E9338245F426B027F90FAFF6B
:10C22000032C5F53C24F6B024E4F7E50E0FF7E9255
:10C2300003287F901C008C2CB012D2C1D25325024F
:10C240005F421B025F53C24F1B026F923E241F428C
:10C2500068020F932B243FF00F003F900B00232820
:10C26000B01250C5B2536802C2931A020224B0122F
:10C2700050C53741384139413A413B4130415D5326
:10C28000C24D6A025F93C62382436802F2901C008B
:10C290006B02042C5F930D245E935D24B012D2C117
:10C2A000C2436B02CB3FB01256C5DC3FB01256C53D
:10C2B000DB3F5F4266027F92F12FF29005006A0237
:10C2C000ED2F5F53C24F6602E93FC2431B026D422E
:10C2D0000E493F401C02B0127EC3084E074F0F9319
:10C2E00003203E902D0B3F28D2431A027D402000B0
:10C2F0000E483F402602B0127EC3399091011228A9
:10C300000C480D470C5C0D6D0C5C0D6D0C5C0D6DDF
:10C310000C5C0D6D0C5C0D6D0C8E0D7F3D932C38FF
:10C320000D932738F2900D0024020F285F42660219
:10C330004F9307247F53C24F66020320B240FF028F
:10C340006802B012D2C1C2436B02C24324027F3FD3
:10C35000B012CAC4733F5F4266024F939F277F5358
:10C36000C24F66029B3F3E90F00AC02FC2431A02A2
:10C37000BD3F3C9018FCD62FD2532402683F0B12CD
:10C380000A12091208120712474D77530C430D4346
:10C3900010244B470A4B3A530A5A0A5F2A4A0B5B4E
:10C3A0000B5F8B4A0000084A09430C580D6977530C
:10C3B000F0238F4E00000A4E0B430E4C0F4D0E5AC9
:10C3C0000F6B3741384139413A413B413041B1C0AF
:10C3D000D00000000013B1C0D00000000013D2D381
:10C3E0002200F2F0FEFF21003041B240805A2001CD
:10C3F000D2D300003041E2D32200E2D32100304109
:10C40000F2D00C005300D242FF105700D242FE106F
:10C4100056003041F2D003002A003041F2D0100023
:10C420004A00F2D020002200F2F0DFFF210030416C
:10C4300032D2304132D0D00030417F92072C4F4F62
:10C440000F5F104FBAC5F2F07F0021003041F2F0CB
:10C45000BFFF21003041F2F0FBFF21003041F2F03C
:10C46000F7FF21003041F2F0FBFF29003041F2F0EC
:10C47000F7FF29003041F2F0EFFF29003041F2F0E0
:10C48000DFFF290030417F92072C4F4F0F5F104F85
:10C49000CAC5F2D080FF21003041F2D04000210017
:10C4A0003041E2D221003041F2D221003041E2D2CB
:10C4B00029003041F2D229003041F2D01000290089
:10C4C0003041F2D02000290030410B124B434F4B3A
:10C4D000B01286C45B537B92FA233B413041F2D0C9
:10C4E0003C002A00F2D0CCFF2200B012CAC4304176
:10C4F0004F4F3FD01C5A824F20013041E2D34200BF
:10C50000B24024036001B2401F5A200132D0D00053
:10C51000B240805A20011F42700182436001F2F054
:10C52000FDFF42003041D2D34200B24024036001FB
:10C53000B2401F5A200132D0D000B240805A2001B0
:10C540001F42700182436001F2F0FEFF4200304161
:10C55000D2D321003041F2F0FEFF21003041F2D071
:10C5600020002100B2406040B201B2401B18B0016F
:10C5700032D0D0001F42B401B2F0FDFFB001F2F0A2
:10C58000DFFF21003041B24060B0B201B240383824
:10C59000B0013F4009001F83FE230343B2D00300D4
:10C5A000B00132D0D0001F42B401B2F0FDFFB001A3
:0AC5B000B2F0DFFFB00130410013CC
:10C5BA0056C45EC466C46EC476C47EC44EC446C441
:10C5CA00A2C4A8C4AEC4B4C4BAC4C2C49AC492C4ED
:10FFE0009AC09AC09AC09AC09AC0D6C39AC09AC002
:10FFF0009AC09AC0CEC39AC09AC09AC09AC000C094
:040000030000C00039
:00000001FF
