:10C000005542200135D0085A82456C023140000467
:10C010003F4000000F93082492426C0220012F83BE
:10C020009F4FE6C50002F8233F406C000F930724A2
:10C0300092426C0220011F83CF430002F923B01209
:10C04000F6C3B0120CC4B01202C4B012EAC4B012EB
:10C0500028C4B012EAC3B01220C4B0123CC45B437F
:10C060007B531220B0129EC04B4FB0123EC14A4FBC
:10C07000B0126AC5094FB01292C50C4F0D494E4A15
:10C080004F4BB012FEC16B426F43B012FCC4B012F2
:10C0900040C4E63F32D0F000FD3F3040C4C50B1233
:10C0A0001B420E025F4209025F53C24F09025E4209
:10C0B0000C024E9303247E53C24E0C027F90050067
:10C0C0001E24C2930C021B206D420E4B3F400E02F9
:10C0D000B0128AC30F4B0F5F0F5F0F8E3F90D4FEDD
:10C0E0001434F24028000C02F24028001702C293D8
:10C0F00016021B244F43C24318023B413041C24346
:10C100000902B01208C50B4FDF3F3F90CFFF113837
:10C11000C24316023F902D010C38C29318020C2026
:10C12000D24318026F433B413041D24316025F4372
:10C13000E23F3F903200DE3B4F433B4130410B1228
:10C140001B4200025F420B025F53C24F0B025E4272
:10C1500017024E9303247E53C24E17027F900500B0
:10C160001E24C29317021B206D420E4B3F4000025B
:10C17000B0128AC30F4B0F5F0F5F0F8E3F90D4FE3C
:10C180001434F24028001702F24028000C02C29337
:10C1900008021B244F43C2430A023B413041C243C1
:10C1A0000B02B01232C50B4FDF3F3F90CFFF11386B
:10C1B000C24308023F902D010C38C2930A020C20A2
:10C1C000D2430A026F433B413041D24308025F43EE
:10C1D000E23F3F903200DE3B4F433B4130410B1288
:10C1E000B012D6C4C293660208244B434F4BB01220
:10C1F00046C45B535B926602F92B3B4130410B1204
:10C200000A12091208120712094D3C905103012429
:10C21000052C5D426A027D90C8FF37285F933A245F
:10C220005E9338245F426B027F90FAFF032C5F53CA
:10C23000C24F6B024E4F7E50E0FF7E9203287F90EC
:10C240001C008C2CB012DEC1D25325025F421B02AF
:10C250005F53C24F1B026F923E241F4268020F932E
:10C260002B243FF00F003F900B002328B0125CC539
:10C27000B2536802C2931A020224B0125CC537415D
:10C28000384139413A413B4130415D53C24D6A0228
:10C290005F93C62382436802F2901C006B02042C59
:10C2A0005F930D245E935D24B012DEC1C2436B0226
:10C2B000CB3FB01262C5DC3FB01262C5DB3F5F42CC
:10C2C00066027F92F12FF29005006A02ED2F5F5314
:10C2D000C24F6602E93FC2431B026D420E493F4016
:10C2E0001C02B0128AC3084E074F0F9303203E90E2
:10C2F0002D0B3F28D2431A027D4020000E483F40BC
:10C300002602B0128AC33990910112280C480D47B9
:10C310000C5C0D6D0C5C0D6D0C5C0D6D0C5C0D6D95
:10C320000C5C0D6D0C8E0D7F3D932C380D932738D2
:10C33000F2900D0024020F285F4266024F930724FB
:10C340007F53C24F66020320B240FF026802B01260
:10C35000DEC1C2436B02C24324027F3FB012D6C487
:10C36000733F5F4266024F939F277F53C24F66021F
:10C370009B3F3E90F00AC02FC2431A02BD3F3C9043
:10C3800018FCD62FD2532402683F0B120A1209124E
:10C3900008120712474D77530C430D4310244B47A7
:10C3A0000A4B3A530A5A0A5F2A4A0B5B0B5F8B4AC5
:10C3B0000000084A09430C580D697753F0238F4E4B
:10C3C00000000A4E0B430E4C0F4D0E5A0F6B3741B7
:10C3D000384139413A413B413041B1C0D0000000C1
:10C3E0000013B1C0D00000000013D2D32200F2F03D
:10C3F000FEFF21003041B240805A2001D2D300001C
:10C400003041E2D32200E2D321003041F2D00C00CF
:10C410005300D242FF105700D242FE105600304166
:10C42000F2D003002A003041F2D010004A00F2D0CE
:10C4300020002200F2F0DFFF2100304132D23041F3
:10C4400032D0D00030417F92072C4F4F0F5F104FFA
:10C45000C6C5F2F07F0021003041F2F0BFFF21009D
:10C460003041F2F0FBFF21003041F2F0F7FF2100F4
:10C470003041F2F0FBFF29003041F2F0F7FF2900D4
:10C480003041F2F0EFFF29003041F2F0DFFF2900E8
:10C4900030417F92072C4F4F0F5F104FD6C5F2D01F
:10C4A00080FF21003041F2D0400021003041E2D233
:10C4B00021003041F2D221003041E2D22900304146
:10C4C000F2D229003041F2D0100029003041F2D0E0
:10C4D0002000290030410B124B434F4BB01292C445
:10C4E0005B537B92FA233B413041F2D03C002A005F
:10C4F000F2D0CCFF2200B012D6C430414F4F3FD013
:10C500001C5A824F20013041E2D34200B240240342
:10C510006001B2401F5A200132D0D000B240805A90
:10C5200020011F42700182436001F2F0FDFF4200D2
:10C530003041D2D34200B24024036001B2401F5ABE
:10C54000200132D0D000B240805A20011F42700139
:10C5500082436001F2F0FEFF42003041D2D321005D
:10C560003041F2F0FEFF21003041F2D020002100E6
:10C57000B2406040B201B2401B18B00132D0D000CE
:10C580001F42B401B2F0FDFFB001F2F0DFFF210065
:10C590003041B24060B0B201B2403838B0013F40E3
:10C5A00009001F83FE230343B2D00300B00132D041
:10C5B000D0001F42B401B2F0FDFFB001B2F0DFFFC6
:06C5C000B0013041001340
:10C5C60062C46AC472C47AC482C48AC45AC452C4D5
:10C5D600AEC4B4C4BAC4C0C4C6C4CEC4A6C49EC481
:10FFE0009AC09AC09AC09AC09AC0E2C39AC09AC0F6
:10FFF0009AC09AC0DAC39AC09AC09AC09AC000C088
:040000030000C00039
:00000001FF
