:10C000005542200135D0085A824570023140000463
:10C010003F4000000F9308249242700220012F83BA
:10C020009F4F22C60002F8233F4070000F93072461
:10C030009242700220011F83CF430002F923B01205
:10C0400032C4B01248C4B0123EC4B01226C5B012F9
:10C0500064C4B01226C4B0125CC4B01278C45B438E
:10C060007B531220B0129EC04B4FB0123EC14A4FBC
:10C07000B012A6C5094FB012CEC50C4F0D494E4A9D
:10C080004F4BB0122EC26B426F43B01238C5B01284
:10C090007CC4E63F32D0F000FD3F304000C60B12BA
:10C0A0001B420E025F4209025F53C24F09025E4209
:10C0B0000C024E9303247E53C24E0C027F90050067
:10C0C0001E24C2930C021B206D420E4B3F400E02F9
:10C0D000B012C6C30F4B0F5F0F5F0F8E3F90D4FEA1
:10C0E0001434F24028000C02F24028001702C293D8
:10C0F00016021B244F43C24318023B413041C24346
:10C100000902B01244C50B4FDF3F3F90CFFF1138FB
:10C11000C24316023F902D010C38C29318020C2026
:10C12000D24318026F433B413041D24316025F4372
:10C13000E23F3F903200DE3B4F433B4130410B1228
:10C140001B4200025F420B025F53C24F0B025E4272
:10C1500017024E9303247E53C24E17027F900500B0
:10C160001E24C29317021B206D420E4B3F4000025B
:10C17000B012C6C30F4B0F5F0F5F0F8E3F90D4FE00
:10C180001434F24028001702F24028000C02C29337
:10C1900008021B244F43C2430A023B413041C243C1
:10C1A0000B02B0126EC50B4FDF3F3F90CFFF11382F
:10C1B000C24308023F902D010C38C2930A020C20A2
:10C1C000D2430A026F433B413041D24308025F43EE
:10C1D000E23F3F903200DE3B4F433B4130410B1288
:10C1E000B01212C55F4268024F9309244B434F4B74
:10C1F000B01282C45B535F4268024B9FF82BC2931C
:10C200006C020324C29F26020224D2436902D24355
:10C210006C02C24F26023B413041B01212C5D2938C
:10C220006C020220D2436902C2436C0230410B12FD
:10C230000A12091208120712094DC2936902042456
:10C24000C24369024E434F433C905203052C5D426A
:10C250006D027D90C8FF37285F933A245E9338249F
:10C260005F426E027F90FAFF032C5F53C24F6E0253
:10C270004E4F7E50E0FF7E9203287F901C008C2C56
:10C28000B012DEC1D25325025F421B025F53C24F80
:10C290001B026F923E241F426A020F932B243FF031
:10C2A0000F003F900B002328B01298C5B2536A02CA
:10C2B000C2931A020224B01298C53741384139415D
:10C2C0003A413B4130415D53C24D6D025F93C623FD
:10C2D00082436A02F2901C006E02042C5F930D24CC
:10C2E0005E935D24B012DEC1C2436E02CB3FB0123A
:10C2F0009EC5DC3FB0129EC5DB3F5F4268027F9265
:10C30000F12FF29005006D02ED2F5F53C24F6802CE
:10C31000E93FC2431B026D420E493F401C02B0126E
:10C32000C6C3084E074F0F9303203E902D0B3F28A6
:10C33000D2431A027D4020000E483F402802B0122E
:10C34000C6C33990910112280C480D470C5C0D6D45
:10C350000C5C0D6D0C5C0D6D0C5C0D6D0C5C0D6D55
:10C360000C8E0D7F3D932C380D932738F2900D00E5
:10C3700024020F285F4268024F9307247F53C24F65
:10C3800068020320B240FF026A02B012DEC1C2435B
:10C390006E02C24324027F3FB0121AC2733F5F4253
:10C3A00068024F939F277F53C24F68029B3F3E9086
:10C3B000F00AC02FC2431A02BD3F3C9018FCD62F92
:10C3C000D2532402683F0B120A12091208120712F4
:10C3D000474D77530C430D4310244B470A4B3A53B8
:10C3E0000A5A0A5F2A4A0B5B0B5F8B4A0000084A15
:10C3F00009430C580D697753F0238F4E00000A4E05
:10C400000B430E4C0F4D0E5A0F6B374138413941DB
:10C410003A413B413041B1C0D00000000013B1C0EF
:10C42000D00000000013D2D32200F2F0FEFF210062
:10C430003041B240805A2001D2D300003041E2D3D3
:10C440002200E2D321003041F2D00C005300D2424E
:10C45000FF105700D242FE1056003041F2D00300C8
:10C460002A003041F2D010004A00F2D02000220011
:10C47000F2F0DFFF2100304132D2304132D0D00023
:10C4800030417F92072C4F4F0F5F104F02C6F2F0E2
:10C490007F0021003041F2F0BFFF21003041F2F077
:10C4A000FBFF21003041F2F0F7FF21003041F2F0B4
:10C4B000FBFF29003041F2F0F7FF29003041F2F094
:10C4C000EFFF29003041F2F0DFFF290030417F9279
:10C4D000072C4F4F0F5F104F12C6F2D080FF210084
:10C4E0003041F2D0400021003041E2D22100304101
:10C4F000F2D221003041E2D229003041F2D22900AB
:10C500003041F2D0100029003041F2D02000290043
:10C5100030410B124B434F4BB012CEC45B537B9256
:10C52000FA233B413041F2D03C002A00F2D0CCFF4C
:10C530002200B01212C530414F4F3FD01C5A824FDB
:10C5400020013041E2D34200B24024036001B240F6
:10C550001F5A200132D0D000B240805A20011F4221
:10C56000700182436001F2F0FDFF42003041D2D3FE
:10C570004200B24024036001B2401F5A200132D071
:10C58000D000B240805A20011F42700182436001F6
:10C59000F2F0FEFF42003041D2D321003041F2F0F0
:10C5A000FEFF21003041F2D020002100B240604067
:10C5B000B201B2401B18B00132D0D0001F42B4010A
:10C5C000B2F0FDFFB001F2F0DFFF21003041B240D8
:10C5D00060B0B201B2403838B0013F4009001F835B
:10C5E000FE230343B2D00300B00132D0D0001F427B
:10C5F000B401B2F0FDFFB001B2F0DFFFB001304195
:02C60000001325
:10C602009EC4A6C4AEC4B6C4BEC4C6C496C48EC4B8
:10C61200EAC4F0C4F6C4FCC402C50AC5E2C4DAC462
:10FFE0009AC09AC09AC09AC09AC01EC49AC09AC0B9
:10FFF0009AC09AC016C49AC09AC09AC09AC000C04B
:040000030000C00039
:00000001FF
