:10C00000314000041542200175F335D0085A3F40F5
:10C0100000000F930724824520012F839F4F84C780
:10C020000002F9233F406C000F9306248245200153
:10C030001F83CF430002FA23B012D2C3B012E8C369
:10C04000B012DEC3B0124EC6B01204C4B012C6C3E2
:10C05000B012FCC3B01218C45B437B531220B01261
:10C0600098C04B4FB0122AC14A4FB012CEC6094FEA
:10C07000B012F6C60C4F0D494E4A4F4BB012DEC1FE
:10C080006B426F43B01274C6B0121CC5E63F32D08B
:10C09000F000FD3F304082C70B121B420E025F4290
:10C0A00009025F53C24F09025E420C024E93032401
:10C0B0007E53C24E0C026F920324C2930C020524DD
:10C0C000C2430902B012A0C60B4F6D420E4B3F4057
:10C0D0000E02B01260C30F4B0F5F0F5F0F8E3F90C9
:10C0E000D4FE0A34F24028000C02C2931602162035
:10C0F000D24316025F43133C3F90CFFF0C38C2433C
:10C1000016023F902D010738C29318020B20D2432C
:10C1100018026F43083C3F90320004344F43C2433F
:10C120001802013C4F433B4130410B121B420002BD
:10C130005F420B025F53C24F0B025E4217024E93E7
:10C1400003247E53C24E17026F920324C293170238
:10C150000524C2430B02B012B0C60B4F6D420E4B0A
:10C160003F400002B01260C30F4B0F5F0F5F0F8E96
:10C170003F90D4FE0A34F24028001702C29308020E
:10C180001620D24308025F43133C3F90CFFF0C3888
:10C19000C24308023F902D010738C2930A020B20C8
:10C1A000D2430A026F43083C3F90320004344F43AD
:10C1B000C2430A02013C4F433B4130410B12B012D3
:10C1C0003AC64B43043C4F4BB01222C55B535B92C3
:10C1D0006602F92B3B413041B0123AC630410B1296
:10C1E0000A1209120812084D3C905203082C5D42B5
:10C1F0006A027D90C8FF032C5D53C24D6A025F93B3
:10C2000002245E93202082436802F2901C006B029D
:10C21000152C5F930A205F4266027F920F2CF290EA
:10C2200005006A020B2C5F53073C5E9307205F42B8
:10C2300066024F9303247F53C24F6602B012BCC103
:10C24000C2436B02173C5F426B027F90FAFF032CE4
:10C250005F53C24F6B025F426B024E4F7E50E0FF56
:10C260007E9203287F901C00032CB012BCC1023CBC
:10C27000B0123AC6D25325025F421B025F53C24F2F
:10C280001B026F925020C2431B024D4F0E483F408D
:10C290001C02B01260C30A4E094F0F9303203E9058
:10C2A0002D0B0328D2431A02053C3E90F00A022CC3
:10C2B000C24F1A027D4020000E4A3F402602B012B3
:10C2C00060C30B4E0C4F3890910118280D4A0E494F
:10C2D0000D5D0E6E0D5D0E6E0D5D0E6E0D5D0E6EC6
:10C2E0000D5D0E6E0D8B0E7C3E9305380E9306345D
:10C2F0003D9018FC032CD2532402153CF2900D0003
:10C3000024020F285F4266024F9307247F53C24FD7
:10C3100066020320B240FF026802B012BCC1C243F1
:10C320006B02C24324021F4268020F930D243FF0A8
:10C330000F003F900B000328B012C0C6023CB012A1
:10C34000C6C6B2536802023CB012C6C6C2931A02F5
:10C350000224B012C0C6384139413A413B41304114
:10C360000B120A120912081207120612074E484D44
:10C3700078530C430D43103C4E480B4E3B530B5B24
:10C380000B5F264B0B4E0B5B0B5F8B460000094689
:10C390000A430C590D6A78534893EE238F470000E7
:10C3A0000E470F430E5C0F6D36413741384139411E
:10C3B0003A413B413041B1C0D00000000013B1C050
:10C3C000D00000000013D2D32200F2F0FEFF2100C3
:10C3D0003041B240805A2001D2D300003041E2D334
:10C3E0002200E2D321003041F2D00C005300D242AF
:10C3F000FF105700D242FE1056003041F2D0030029
:10C400002A003041F2D010004A00F2D02000220071
:10C41000F2F0DFFF2100304132D23041F2F0FDFF77
:10C420002100034303433E4089001E83FE234E4FF9
:10C430001EB30324E2D32100033CF2F0FDFF2100F0
:10C44000034303433D4089001D83FE232EB3032491
:10C45000E2D32100033CF2F0FDFF2100034303433C
:10C460003D4089001D83FE232EB20324E2D3210028
:10C47000033CF2F0FDFF2100034303433D408900EC
:10C480001D83FE233EB20324E2D32100033CF2F0DD
:10C49000FDFF2100034303433D4089001D83FE232C
:10C4A0003EB010000324E2D32100033CF2F0FDFF74
:10C4B0002100034303433D4089001D83FE233EB01A
:10C4C00020000324E2D32100033CF2F0FDFF210011
:10C4D000034303433D4089001D83FE233EF040009B
:10C4E0000324E2D32100033CF2F0FDFF21000343CB
:10C4F00003433E4089001E83FE234F930334E2D35F
:10C500002100033CF2F0FDFF2100034303433F40C1
:10C5100089001F83FE23E2D32100304132D0D000B6
:10C5200030417F922B2C4F4F0F5F104F2EC53EC5D1
:10C5300046C54EC556C55EC566C56EC576C5F2F024
:10C54000FBFF21003041F2F0F7FF21003041F2F013
:10C55000FBFF29003041F2F0F7FF29003041F2F0F3
:10C56000EFFF29003041F2F0DFFF29003041F2F007
:10C57000BFFF21003041F2F07F00210030417F9267
:10C58000272C4F4F0F5F104F8AC59AC5A0C5A6C56F
:10C59000ACC5B2C5BAC5C2C5CAC5E2D221003041D8
:10C5A000F2D221003041E2D229003041F2D22900FA
:10C5B0003041F2D0100029003041F2D02000290093
:10C5C0003041F2D0400021003041F2D080FF210004
:10C5D00030417F92272C4F4F0F5F104FDEC5EEC5C5
:10C5E000F4C5FAC500C606C60EC616C61EC6E2E2E9
:10C5F00021003041F2E221003041E2E229003041E5
:10C60000F2E229003041F2E0100029003041F2E06E
:10C61000200029003041F2E0400021003041F2507A
:10C6200080FF210030410B124B434F4BB01222C50B
:10C630005B537B92FA233B4130410B124B434F4BF0
:10C64000B0127EC55B537B92FA233B413041F2D05E
:10C650003C002A00F2D0CCFF2200B0123AC6304192
:10C660000B124B434F4BB012D2C55B537B92FA2354
:10C670003B4130414F4F3FD01C5A824F2001304147
:10C68000B24024036001B2401F5A200132D0D000D2
:10C69000B240805A20011F42700182436001304144
:10C6A000E2D34200B01280C6F2F0FDFF42003041FA
:10C6B000D2D34200B01280C6F2F0FEFF42003041F9
:10C6C000D2D321003041F2F0FEFF21003041F2D000
:10C6D00020002100B2406040B201B2401B18B001FE
:10C6E00032D0D0001F42B401B2F0FDFFB001F2F031
:10C6F000DFFF21003041B24060B0B201B2403838B3
:10C70000B00103433F4009001F83FE23B2D0030062
:10C71000B00132D0D0001F42B401B2F0FDFFB00131
:10C72000B2F0DFFFB0013041B0121CC430413F9085
:10C7300082FF06383F907F0005347F507F00033C26
:10C740004F43013C7F43B0121CC430410C4E3F9319
:10C7500012383F9303203E9082FF0D283D407E001B
:10C760000E430E9F0A380F9302200D9C06284F4C53
:10C770007F507F00033C4F43013C7F43B0121CC4F9
:04C780003041001331
:10FFE00094C094C094C094C094C0BEC394C094C044
:10FFF00094C094C0B6C394C094C094C094C000C0D0
:040000030000C00039
:00000001FF
