:10C00000314000041542200175F335D0085A3F40F5
:10C0100000000F930724824520012F839F4FCEC538
:10C020000002F9233F406C000F9306248245200153
:10C030001F83CF430002FA23B012F2C3B01208C428
:10C04000B012FEC3B012E6C4B01224C4B012E6C3EC
:10C05000B0121CC4B01238C45B43053C6F43B0122D
:10C06000F8C4B0123CC47B53F923B0129AC04B4FB2
:10C07000B01234C14A4FB01252C5094FB0127AC53E
:10C080000C4F0D494E4A4F4BB012EEC16B42E63F8A
:10C0900032D0F000FD3F3040ACC50B121B420E0207
:10C0A0005F4209025F53C24F09025E420C024E9387
:10C0B00023247E53C24E0C02C24309020524C2430C
:10C0C0000902B01224C50B4F6D420E4B3F400E02C9
:10C0D000B01278C30F4B0F5F0F5F0F8E3F90D4FEEF
:10C0E0000F34F24028000C02C293160219244F4369
:10C0F000C24318023B4130417F900600E523DF3FF9
:10C100003F90CFFF1138C24316023F902D010C38EB
:10C11000C29318020C20D24318026F433B413041B6
:10C12000D24316025F43E43F3F903200E03B4F436F
:10C130003B4130410B121B4200025F420B025F5336
:10C14000C24F0B025E4217024E9323247E53C24E0F
:10C150001702C2430B020524C2430B02B01234C5BE
:10C160000B4F6D420E4B3F400002B01278C30F4B95
:10C170000F5F0F5F0F8E3F90D4FE0F34F240280008
:10C180001702C293080219244F43C2430A023B41DB
:10C1900030417F900600E523DF3F3F90CFFF11380D
:10C1A000C24308023F902D010C38C2930A020C20B2
:10C1B000D2430A026F433B413041D24308025F43FE
:10C1C000E43F3F903200E03B4F433B4130410B1294
:10C1D000B012D2C4C293660208244B434F4BB01234
:10C1E00042C45B535B926602F92B3B4130410B1218
:10C1F0000A12091208120A4D3C905203052C5D42A6
:10C200006A027D90C8FF36285F9339245E933724F5
:10C210005F426B027F90FAFF032C5F53C24F6B02A9
:10C220004E4F7E50E0FF7E9203287F901C003C2CF6
:10C23000B012CEC1D25325025F421B025F53C24FE0
:10C240001B026F9240241F4268020F932A243FF082
:10C250000F003F900B002228B01244C5B253680271
:10C26000C2931A020224B01244C5384139413A41FE
:10C270003B4130415D53C24D6A025F93C723824305
:10C280006802F2901C006B02042C5F9310245E93F2
:10C290006B24B012CEC1C2436B02CC3FB0124AC570
:10C2A000DD3FB0124AC5DC3FB012D2C4C33F5F428B
:10C2B00066027F92EE2FF29005006A02EA2F5F532A
:10C2C000C24F6602E63FC2431B024D4F0E4A3F403B
:10C2D0001C02B01278C3094E084F0F9303203E9002
:10C2E0002D0B2628D2431A027D4020000E493F40E4
:10C2F0002602B01278C30B4E0C4F3A9091011E28C3
:10C300000D490E480D5D0E6E0D5D0E6E0D5D0E6ECF
:10C310000D5D0E6E0D5D0E6E0D8B0E7C3E93053821
:10C320000E930C343D9018FC092CD25324028B3F01
:10C330003E90F00AD92FC24F1A02D63FF2900D005C
:10C3400024020F285F4266024F9307247F53C24F97
:10C3500066020320B240FF026802B012CEC1C2439F
:10C360006B02C24324026F3F5F4266024F939127E4
:10C370007F53C24F66028D3F0B120A120912081238
:10C38000071206120512054E484D785321240C431E
:10C390000D4347480B473B530B5B0B5F264B0B474B
:10C3A0000B5B0B5F8B46000009460A430C590D6A74
:10C3B0007853EF238F4500000E450F430E5C0F6D41
:10C3C000354136413741384139413A413B413041AD
:10C3D0000C430D43EF3FB1C0D00000000013B1C0CB
:10C3E000D00000000013D2D32200F2F0FEFF2100A3
:10C3F0003041B240805A2001D2D300003041E2D314
:10C400002200E2D321003041F2D00C005300D2428E
:10C41000FF105700D242FE1056003041F2D0030008
:10C420002A003041F2D010004A00F2D02000220051
:10C43000F2F0DFFF2100304132D2304132D0D00063
:10C4400030417F92072C4F4F0F5F104FAEC5F2F077
:10C450007F0021003041F2F0BFFF21003041F2F0B7
:10C46000FBFF21003041F2F0F7FF21003041F2F0F4
:10C47000FBFF29003041F2F0F7FF29003041F2F0D4
:10C48000EFFF29003041F2F0DFFF290030417F92B9
:10C49000072C4F4F0F5F104FBEC5F2D080FF210019
:10C4A0003041F2D0400021003041E2D22100304141
:10C4B000F2D221003041E2D229003041F2D22900EB
:10C4C0003041F2D0100029003041F2D02000290084
:10C4D00030410B124B434F4BB0128EC45B537B92D7
:10C4E000FA233B413041F2D03C002A00F2D0CCFF8D
:10C4F0002200B012D2C430414F4F3FD01C5A824F5D
:10C5000020013041B24024036001B2401F5A200193
:10C5100032D0D000B240805A20011F4270018243C5
:10C5200060013041E2D34200B01204C5F2F0FDFFD9
:10C5300042003041D2D34200B01204C5F2F0FEFFF7
:10C5400042003041D2D321003041F2F0FEFF210001
:10C550003041F2D020002100B2406040B201B24030
:10C560001B18B00132D0D0001F42B401B2F0FDFF61
:10C57000B001F2F0DFFF21003041B24060B0B20103
:10C58000B2403838B00103433F4009001F83FE2307
:10C59000B2D00300B00132D0D0001F42B401B2F0DB
:0EC5A000FDFFB001B2F0DFFFB001304100132B
:10C5AE005EC466C46EC476C47EC486C456C44EC40D
:10C5BE00AAC4B0C4B6C4BCC4C2C4CAC4A2C49AC4B9
:10FFE00096C096C096C096C096C0DEC396C096C016
:10FFF00096C096C0D6C396C096C096C096C000C0A4
:040000030000C00039
:00000001FF
