:10C00000314000041542200175F335D0085A3F40F5
:10C0100000000F930724824520012F839F4FDAC52C
:10C020000002F9233F406C000F9306248245200153
:10C030001F83CF430002FA23B012FEC3B01214C410
:10C04000B0120AC4B012F2C4B01230C4B012F2C3BB
:10C05000B01228C4B01244C45B43053C6F43B01215
:10C0600004C5B01248C47B53F923B0129AC04B4F99
:10C07000B0123AC14A4FB0125EC5094FB01286C520
:10C080000C4F0D494E4A4F4BB012FAC16B42E63F7E
:10C0900032D0F000FD3F3040B8C50B121B420E02FB
:10C0A0005F4209025F53C24F09025E420C024E9387
:10C0B00003247E53C24E0C027F9005001E24C293BF
:10C0C0000C021B206D420E4B3F400E02B01284C387
:10C0D0000F4B0F5F0F5F0F8E3F90D4FE1434F24072
:10C0E00028000C02F24028001702C29316021B24FB
:10C0F0004F43C24318023B413041C2430902B012D0
:10C1000030C50B4FDF3F3F90CFFF1138C2431602BF
:10C110003F902D010C38C29318020C20D243180214
:10C120006F433B413041D24316025F43E23F3F90B1
:10C130003200DE3B4F433B4130410B121B420002B9
:10C140005F420B025F53C24F0B025E4217024E93D7
:10C1500003247E53C24E17027F9005001E24C29313
:10C1600017021B206D420E4B3F400002B01284C3E9
:10C170000F4B0F5F0F5F0F8E3F90D4FE1434F240D1
:10C1800028001702F24028000C02C29308021B2468
:10C190004F43C2430A023B413041C2430B02B0123B
:10C1A00040C50B4FDF3F3F90CFFF1138C24308021D
:10C1B0003F902D010C38C2930A020C20D2430A0290
:10C1C0006F433B413041D24308025F43E23F3F901F
:10C1D0003200DE3B4F433B4130410B12B012DEC414
:10C1E000C293660208244B434F4BB0124EC45B53BC
:10C1F0005B926602F92B3B4130410B120A12091285
:10C2000008120A4D3C905203052C5D426A027D9053
:10C21000C8FF36285F9339245E9337245F426B0250
:10C220007F90FAFF032C5F53C24F6B024E4F7E503C
:10C23000E0FF7E9203287F901C003C2CB012DAC1F4
:10C24000D25325025F421B025F53C24F1B026F9203
:10C2500040241F4268020F932A243FF00F003F90B2
:10C260000B002228B01250C5B2536802C2931A02C2
:10C270000224B01250C5384139413A413B41304166
:10C280005D53C24D6A025F93C72382436802F290F6
:10C290001C006B02042C5F9310245E936B24B0127D
:10C2A000DAC1C2436B02CC3FB01256C5DD3FB012BB
:10C2B00056C5DC3FB012DEC4C33F5F4266027F92C8
:10C2C000EE2FF29005006A02EA2F5F53C24F66021A
:10C2D000E63FC2431B024D4F0E4A3F401C02B012C4
:10C2E00084C3094E084F0F9303203E902D0B262840
:10C2F000D2431A027D4020000E493F402602B01270
:10C3000084C30B4E0C4F3A9091011E280D490E48E4
:10C310000D5D0E6E0D5D0E6E0D5D0E6E0D5D0E6E85
:10C320000D5D0E6E0D8B0E7C3E9305380E930C3416
:10C330003D9018FC092CD25324028B3F3E90F00A0A
:10C34000D92FC24F1A02D63FF2900D0024020F28B7
:10C350005F4266024F9307247F53C24F6602032059
:10C36000B240FF026802B012DAC1C2436B02C2439C
:10C3700024026F3F5F4266024F9391277F53C24F63
:10C3800066028D3F0B120A120912081207120612DA
:10C390000512054E484D785321240C430D43474860
:10C3A0000B473B530B5B0B5F264B0B470B5B0B5F4A
:10C3B0008B46000009460A430C590D6A7853EF2357
:10C3C0008F4500000E450F430E5C0F6D3541364121
:10C3D0003741384139413A413B4130410C430D43EB
:10C3E000EF3FB1C0D00000000013B1C0D00000008A
:10C3F0000013D2D32200F2F0FEFF21003041B24000
:10C40000805A2001D2D300003041E2D32200E2D38F
:10C4100021003041F2D00C005300D242FF105700EF
:10C42000D242FE1056003041F2D003002A003041C3
:10C43000F2D010004A00F2D020002200F2F0DFFF1C
:10C440002100304132D2304132D0D00030417F9291
:10C45000072C4F4F0F5F104FBAC5F2F07F0021003D
:10C460003041F2F0BFFF21003041F2F0FBFF21002C
:10C470003041F2F0F7FF21003041F2F0FBFF2900DC
:10C480003041F2F0F7FF29003041F2F0EFFF2900D0
:10C490003041F2F0DFFF290030417F92072C4F4FEF
:10C4A0000F5F104FCAC5F2D080FF21003041F2D09B
:10C4B000400021003041E2D221003041F2D221007F
:10C4C0003041E2D229003041F2D229003041F2D08D
:10C4D000100029003041F2D02000290030410B1219
:10C4E0004B434F4BB0129AC45B537B92FA233B41B0
:10C4F0003041F2D03C002A00F2D0CCFF2200B01232
:10C50000DEC430414F4F3FD01C5A824F2001304192
:10C51000B24024036001B2401F5A200132D0D00043
:10C52000B240805A20011F427001824360013041B5
:10C53000E2D34200B01210C5F2F0FDFF42003041DC
:10C54000D2D34200B01210C5F2F0FEFF42003041DB
:10C55000D2D321003041F2F0FEFF21003041F2D071
:10C5600020002100B2406040B201B2401B18B0016F
:10C5700032D0D0001F42B401B2F0FDFFB001F2F0A2
:10C58000DFFF21003041B24060B0B201B240383824
:10C59000B00103433F4009001F83FE23B2D00300D4
:10C5A000B00132D0D0001F42B401B2F0FDFFB001A3
:0AC5B000B2F0DFFFB00130410013CC
:10C5BA006AC472C47AC482C48AC492C462C45AC4A1
:10C5CA00B6C4BCC4C2C4C8C4CEC4D6C4AEC4A6C44D
:10FFE00096C096C096C096C096C0EAC396C096C00A
:10FFF00096C096C0E2C396C096C096C096C000C098
:040000030000C00039
:00000001FF
