:10C00000314000041542200175F335D0085A3F40F5
:10C0100000000F930724824520012F839F4FD2C732
:10C020000002F9233F4066000F9306248245200159
:10C030001F83CF430002FA23B0128EC3B012A4C3F1
:10C04000B0129AC3B01216C6B012C0C3B01282C3E7
:10C05000B012E0C3B01298C04B4FB012FAC04A4FB2
:10C06000B01244C6094FB012C2C6084FB0123CC647
:10C070000C480D494E4A4F4BB0127EC1B012E4C479
:10C08000B012E4C4B012E4C4B012E4C4E33F32D04E
:10C09000F000FD3F3040D0C70B12B01294C60B4FDA
:10C0A0006D420E4F3F400A02B0121CC30F4B0F5F90
:10C0B0000F5F0F8E3F90D4FE0734C29312021620FA
:10C0C000D24312025F43133C3F90CFFF0C38C24370
:10C0D00012023F902D010738C29313020B20D24366
:10C0E00013026F43083C3F90320004344F43C24375
:10C0F0001302013C4F433B4130410B12B012A4C626
:10C100000B4F6D420E4F3F400002B0121CC30F4B4D
:10C110000F5F0F5F0F8E3F90D4FE0734C29308026B
:10C120001620D24308025F43133C3F90CFFF0C38E8
:10C13000C24308023F902D010738C29309020B2029
:10C14000D24309026F43083C3F90320004344F430E
:10C15000C2430902013C4F433B4130410B12B01234
:10C1600002C64B43043C4F4BB012EAC45B535B9294
:10C170006002F92B3B413041B01202C630410B1234
:10C180000A1209120812084D3C905203082C5D4215
:10C1900064027D90C8FF032C5D53C24D64025F931F
:10C1A00002245E93202082436202F2901C0065020A
:10C1B000152C5F930A205F4260027F920F2CF29051
:10C1C000050064020B2C5F53073C5E9307205F421F
:10C1D00060024F9303247F53C24F6002B0125CC1D0
:10C1E000C2436502173C5F4265027F90FAFF032C51
:10C1F0005F53C24F65025F4265024E4F7E50E0FFC3
:10C200007E9203287F901C00032CB0125CC1023C7C
:10C21000B01202C6D2531F025F4215025F53C24FD3
:10C2200015026F925E20C24315024D4F0E483F40EB
:10C230001602B0121CC30A4E094F0C4E0D4F12C30A
:10C240000D100C100D110C100D110C100D110C1007
:10C250004F4CB012E6C6099303203A902D0B0328E9
:10C26000D2431402053C3A90F00A022CC24914024F
:10C270007D4020000E4A3F402002B0121CC30B4EEE
:10C280000C4F3890910118280D4A0E490D5D0E6E25
:10C290000D5D0E6E0D5D0E6E0D5D0E6E0D5D0E6E06
:10C2A0000D8B0E7C3E9305380E9306343D9018FCA2
:10C2B000032CD2531E02153CF2900D001E020F28D3
:10C2C0005F4260024F9307247F53C24F60020320F6
:10C2D000B240FF026202B0125CC1C2436502C243B7
:10C2E0001E021F4262020F930D243FF00F003F9089
:10C2F0000B000328B012B4C6023CB012BAC6B25347
:10C300006202023CB012BAC6C29314020224B012F6
:10C31000B4C6384139413A413B4130410B120A120F
:10C320000912081207120612074E484D78530C43A3
:10C330000D43103C4E480B4E3B530B5B0B5F264BA3
:10C340000B4E0B5B0B5F8B46000009460A430C59F2
:10C350000D6A78534893EE238F4700000E470F4332
:10C360000E5C0F6D36413741384139413A413B410E
:10C370003041B1C0D00000000013B1C0D0000000B7
:10C380000013D2D32200F2F0FEFF21003041B24070
:10C39000805A2001D2D300003041E2D32200E2D300
:10C3A00021003041F2D00C005300D242FF10570060
:10C3B000D242FE1056003041B240805A2001304136
:10C3C000B2406040B201B2401818B001F2D0100083
:10C3D0004A00F2D020002200F2F0DFFF21003041BD
:10C3E00032D23041F2F0FDFF2100034303433E40CF
:10C3F00089001E83FE234E4F1EB30324E2D3210087
:10C40000033CF2F0FDFF2100034303433D4089005C
:10C410001D83FE232EB30324E2D32100033CF2F05C
:10C42000FDFF2100034303433D4089001D83FE239C
:10C430002EB20324E2D32100033CF2F0FDFF2100E1
:10C44000034303433D4089001D83FE233EB2032482
:10C45000E2D32100033CF2F0FDFF2100034303433C
:10C460003D4089001D83FE233EB010000324E2D32B
:10C470002100033CF2F0FDFF2100034303433D4054
:10C4800089001D83FE233EB020000324E2D3210057
:10C49000033CF2F0FDFF2100034303433D408900CC
:10C4A0001D83FE233EF040000324E2D32100033C21
:10C4B000F2F0FDFF2100034303433E4089001E8349
:10C4C000FE234F930334E2D32100033CF2F0FDFF3F
:10C4D0002100034303433F4089001F83FE23E2D32F
:10C4E0002100304132D0D00030417F922B2C4F4F71
:10C4F0000F5F104FF6C406C50EC516C51EC526C56E
:10C500002EC536C53EC5F2F0FBFF21003041F2F0EA
:10C51000F7FF21003041F2F0FBFF29003041F2F03B
:10C52000F7FF29003041F2F0EFFF29003041F2F02F
:10C53000DFFF29003041F2F0BFFF21003041F2F06F
:10C540007F00210030417F92272C4F4F0F5F104F0B
:10C5500052C562C568C56EC574C57AC582C58AC52F
:10C5600092C5E2D221003041F2D221003041E2D224
:10C5700029003041F2D229003041F2D010002900C8
:10C580003041F2D0200029003041F2D0400021009B
:10C590003041F2D080FF210030417F92272C4F4F55
:10C5A0000F5F104FA6C5B6C5BCC5C2C5C8C5CEC5B0
:10C5B000D6C5DEC5E6C5E2E221003041F2E2210047
:10C5C0003041E2E229003041F2E229003041F2E05C
:10C5D000100029003041F2E0200029003041F2E053
:10C5E000400021003041F25080FF210030410B1209
:10C5F0004B434F4BB012EAC45B537B92FA233B414F
:10C6000030410B124B434F4BB01246C55B537B92EC
:10C61000FA233B413041F2D03C002A00F2D0CCFF5B
:10C620002200B01202C630410B124B434F4BB012E6
:10C630009AC55B537B92FA233B413041B2401E5A6C
:10C6400020013041F2D020002100B2406040B20110
:10C65000B2403818B001A2D3B00192D3B00132D0A9
:10C66000D0001F42B401B2F0FDFFB001F2F0DFFFD5
:10C6700021003041B24024036001B2401F5A200122
:10C6800032D0D000B240805A20011F427001824354
:10C6900060013041E2D34200B01274C6F2F0FDFFF7
:10C6A00042003041D2D34200B01274C6F2F0FEFF15
:10C6B00042003041D2D321003041F2F0FEFF210090
:10C6C0003041B24060B0B201B2403838B001A2D3BC
:10C6D000B00192D3B00132D0D0001F42B401B2F009
:10C6E000FDFFB0013041B012E4C330410B126E4F78
:10C6F0000B4F043C4F4EB012E4C36E4B1B534E9392
:10C70000F9233B4130414E4F7E5030007F900A006C
:10C7100002287E5007004F4EB012E4C330410B1286
:10C720000B4F7F403000B012E4C37F407800B0125E
:10C73000E4C30E4B8E103EF0FF0012C30E100E111C
:10C740000E110F4E12C30F10B01206C70F4B8F10F1
:10C750007FF00F00B01206C70E4B12C30E100E1161
:10C760000E110E114F4E7FF00F00B01206C74F4B47
:10C770007FF00F00B01206C73B4130413F9082FF6F
:10C7800006383F907F0005347F507F00033C4F43C5
:10C79000013C7F43B012E4C330410C4E3F9312384A
:10C7A0003F9303203E9082FF0D283D407E000E43C4
:10C7B0000E9F0A380F9302200D9C06284F4C7F5085
:10C7C0007F00033C4F43013C7F43B012E4C3304140
:02C7D000001354
:10FFE00094C094C094C094C094C07AC394C094C088
:10FFF00094C094C072C394C094C094C094C000C014
:040000030000C00039
:00000001FF
